{
  "contractName": "BugBounty",
  "abi": [
    {
      "constant": false,
      "inputs": [
        {
          "name": "myid",
          "type": "bytes32"
        },
        {
          "name": "result",
          "type": "string"
        }
      ],
      "name": "__callback",
      "outputs": [],
      "payable": false,
      "stateMutability": "nonpayable",
      "type": "function"
    },
    {
      "constant": false,
      "inputs": [
        {
          "name": "myid",
          "type": "bytes32"
        },
        {
          "name": "result",
          "type": "string"
        },
        {
          "name": "proof",
          "type": "bytes"
        }
      ],
      "name": "__callback",
      "outputs": [],
      "payable": false,
      "stateMutability": "nonpayable",
      "type": "function"
    },
    {
      "constant": false,
      "inputs": [],
      "name": "withdraw",
      "outputs": [],
      "payable": false,
      "stateMutability": "nonpayable",
      "type": "function"
    },
    {
      "constant": false,
      "inputs": [
        {
          "name": "postData",
          "type": "string"
        }
      ],
      "name": "claimBounty",
      "outputs": [
        {
          "name": "",
          "type": "bool"
        }
      ],
      "payable": false,
      "stateMutability": "nonpayable",
      "type": "function"
    },
    {
      "inputs": [
        {
          "name": "_bountyVerifierDataSource",
          "type": "string"
        },
        {
          "name": "_bountyVerifierQuery",
          "type": "string"
        },
        {
          "name": "_bountyVerifierFlagResult",
          "type": "string"
        }
      ],
      "payable": true,
      "stateMutability": "payable",
      "type": "constructor"
    }
  ],
  "bytecode": "0x606060405260405162001a0438038062001a048339810160405280805182019190602001805182019190602001805182019190505033600560006101000a81548173ffffffffffffffffffffffffffffffffffffffff021916908373ffffffffffffffffffffffffffffffffffffffff16021790555082600790805190602001906200008d929190620000c9565b508160089080519060200190620000a6929190620000c9565b508060099080519060200190620000bf929190620000c9565b5050505062000178565b828054600181600116156101000203166002900490600052602060002090601f016020900481019282601f106200010c57805160ff19168380011785556200013d565b828001600101855582156200013d579182015b828111156200013c5782518255916020019190600101906200011f565b5b5090506200014c919062000150565b5090565b6200017591905b808211156200017157600081600090555060010162000157565b5090565b90565b61187c80620001886000396000f300606060405260043610610062576000357c0100000000000000000000000000000000000000000000000000000000900463ffffffff16806327dc297e1461006757806338bbfa50146100d15780633ccfd60b1461017e5780634377027514610193575b600080fd5b341561007257600080fd5b6100cf60048080356000191690602001909190803590602001908201803590602001908080601f01602080910402602001604051908101604052809392919081815260200183838082843782019150505050505091905050610208565b005b34156100dc57600080fd5b61017c60048080356000191690602001909190803590602001908201803590602001908080601f0160208091040260200160405190810160405280939291908181526020018383808284378201915050505050509190803590602001908201803590602001908080601f01602080910402602001604051908101604052809392919081815260200183838082843782019150505050505091905050610412565b005b341561018957600080fd5b610191610417565b005b341561019e57600080fd5b6101ee600480803590602001908201803590602001908080601f01602080910402602001604051908101604052809392919081815260200183838082843782019150505050505091905050610551565b604051808215151515815260200191505060405180910390f35b610210610757565b73ffffffffffffffffffffffffffffffffffffffff163373ffffffffffffffffffffffffffffffffffffffff161415151561024a57600080fd5b600073ffffffffffffffffffffffffffffffffffffffff16600660009054906101000a900473ffffffffffffffffffffffffffffffffffffffff1673ffffffffffffffffffffffffffffffffffffffff161415156102a757600080fd5b600061034d8260098054600181600116156101000203166002900480601f0160208091040260200160405190810160405280929190818152602001828054600181600116156101000203166002900480156103435780601f1061031857610100808354040283529160200191610343565b820191906000526020600020905b81548152906001019060200180831161032657829003601f168201915b5050505050610a6d565b14156103d057600a6000836000191660001916815260200190815260200160002060009054906101000a900473ffffffffffffffffffffffffffffffffffffffff16600660006101000a81548173ffffffffffffffffffffffffffffffffffffffff021916908373ffffffffffffffffffffffffffffffffffffffff1602179055505b600a6000836000191660001916815260200190815260200160002060006101000a81549073ffffffffffffffffffffffffffffffffffffffff02191690555050565b505050565b600660009054906101000a900473ffffffffffffffffffffffffffffffffffffffff1673ffffffffffffffffffffffffffffffffffffffff163373ffffffffffffffffffffffffffffffffffffffff161415610486573373ffffffffffffffffffffffffffffffffffffffff16ff5b600560009054906101000a900473ffffffffffffffffffffffffffffffffffffffff1673ffffffffffffffffffffffffffffffffffffffff163373ffffffffffffffffffffffffffffffffffffffff161480156105315750600073ffffffffffffffffffffffffffffffffffffffff16600660009054906101000a900473ffffffffffffffffffffffffffffffffffffffff1673ffffffffffffffffffffffffffffffffffffffff16145b1561054f573373ffffffffffffffffffffffffffffffffffffffff16ff5b565b600080600073ffffffffffffffffffffffffffffffffffffffff16600660009054906101000a900473ffffffffffffffffffffffffffffffffffffffff1673ffffffffffffffffffffffffffffffffffffffff161415156105b55760009150610751565b6106f460078054600181600116156101000203166002900480601f01602080910402602001604051908101604052809291908181526020018280546001816001161561010002031660029004801561064e5780601f106106235761010080835404028352916020019161064e565b820191906000526020600020905b81548152906001019060200180831161063157829003601f168201915b505050505060088054600181600116156101000203166002900480601f0160208091040260200160405190810160405280929190818152602001828054600181600116156101000203166002900480156106e95780601f106106be576101008083540402835291602001916106e9565b820191906000526020600020905b8154815290600101906020018083116106cc57829003601f168201915b505050505085610d31565b905033600a6000836000191660001916815260200190815260200160002060006101000a81548173ffffffffffffffffffffffffffffffffffffffff021916908373ffffffffffffffffffffffffffffffffffffffff1602179055505b50919050565b6000806000809054906101000a900473ffffffffffffffffffffffffffffffffffffffff1673ffffffffffffffffffffffffffffffffffffffff1614806107c7575060006107c56000809054906101000a900473ffffffffffffffffffffffffffffffffffffffff166112e1565b145b156107d8576107d660006112ec565b505b6000809054906101000a900473ffffffffffffffffffffffffffffffffffffffff1673ffffffffffffffffffffffffffffffffffffffff166338cc48316000604051602001526040518163ffffffff167c0100000000000000000000000000000000000000000000000000000000028152600401602060405180830381600087803b151561086557600080fd5b6102c65a03f1151561087657600080fd5b5050506040518051905073ffffffffffffffffffffffffffffffffffffffff16600160009054906101000a900473ffffffffffffffffffffffffffffffffffffffff1673ffffffffffffffffffffffffffffffffffffffff161415156109bf576000809054906101000a900473ffffffffffffffffffffffffffffffffffffffff1673ffffffffffffffffffffffffffffffffffffffff166338cc48316000604051602001526040518163ffffffff167c0100000000000000000000000000000000000000000000000000000000028152600401602060405180830381600087803b151561096357600080fd5b6102c65a03f1151561097457600080fd5b50505060405180519050600160006101000a81548173ffffffffffffffffffffffffffffffffffffffff021916908373ffffffffffffffffffffffffffffffffffffffff1602179055505b600160009054906101000a900473ffffffffffffffffffffffffffffffffffffffff1673ffffffffffffffffffffffffffffffffffffffff1663c281d19e6000604051602001526040518163ffffffff167c0100000000000000000000000000000000000000000000000000000000028152600401602060405180830381600087803b1515610a4d57600080fd5b6102c65a03f11515610a5e57600080fd5b50505060405180519050905090565b6000610a77611797565b610a7f611797565b600080869350859250835191508183511015610a9a57825191505b600090505b81811015610cdd578281815181101515610ab557fe5b9060200101517f010000000000000000000000000000000000000000000000000000000000000090047f0100000000000000000000000000000000000000000000000000000000000000027effffffffffffffffffffffffffffffffffffffffffffffffffffffffffffff19168482815181101515610b3057fe5b9060200101517f010000000000000000000000000000000000000000000000000000000000000090047f0100000000000000000000000000000000000000000000000000000000000000027effffffffffffffffffffffffffffffffffffffffffffffffffffffffffffff19161015610bcb577fffffffffffffffffffffffffffffffffffffffffffffffffffffffffffffffff9450610d27565b8281815181101515610bd957fe5b9060200101517f010000000000000000000000000000000000000000000000000000000000000090047f0100000000000000000000000000000000000000000000000000000000000000027effffffffffffffffffffffffffffffffffffffffffffffffffffffffffffff19168482815181101515610c5457fe5b9060200101517f010000000000000000000000000000000000000000000000000000000000000090047f0100000000000000000000000000000000000000000000000000000000000000027effffffffffffffffffffffffffffffffffffffffffffffffffffffffffffff19161115610cd05760019450610d27565b8080600101915050610a9f565b825184511015610d0f577fffffffffffffffffffffffffffffffffffffffffffffffffffffffffffffffff9450610d27565b825184511115610d225760019450610d27565b600094505b5050505092915050565b60008060008060009054906101000a900473ffffffffffffffffffffffffffffffffffffffff1673ffffffffffffffffffffffffffffffffffffffff161480610da357506000610da16000809054906101000a900473ffffffffffffffffffffffffffffffffffffffff166112e1565b145b15610db457610db260006112ec565b505b6000809054906101000a900473ffffffffffffffffffffffffffffffffffffffff1673ffffffffffffffffffffffffffffffffffffffff166338cc48316000604051602001526040518163ffffffff167c0100000000000000000000000000000000000000000000000000000000028152600401602060405180830381600087803b1515610e4157600080fd5b6102c65a03f11515610e5257600080fd5b5050506040518051905073ffffffffffffffffffffffffffffffffffffffff16600160009054906101000a900473ffffffffffffffffffffffffffffffffffffffff1673ffffffffffffffffffffffffffffffffffffffff16141515610f9b576000809054906101000a900473ffffffffffffffffffffffffffffffffffffffff1673ffffffffffffffffffffffffffffffffffffffff166338cc48316000604051602001526040518163ffffffff167c0100000000000000000000000000000000000000000000000000000000028152600401602060405180830381600087803b1515610f3f57600080fd5b6102c65a03f11515610f5057600080fd5b50505060405180519050600160006101000a81548173ffffffffffffffffffffffffffffffffffffffff021916908373ffffffffffffffffffffffffffffffffffffffff1602179055505b600160009054906101000a900473ffffffffffffffffffffffffffffffffffffffff1673ffffffffffffffffffffffffffffffffffffffff1663524f3889866000604051602001526040518263ffffffff167c01000000000000000000000000000000000000000000000000000000000281526004018080602001828103825283818151815260200191508051906020019080838360005b8381101561104e578082015181840152602081019050611033565b50505050905090810190601f16801561107b5780820380516001836020036101000a031916815260200191505b5092505050602060405180830381600087803b151561109957600080fd5b6102c65a03f115156110aa57600080fd5b50505060405180519050905062030d403a02670de0b6b3a7640000018111156110d957600060010291506112d9565b600160009054906101000a900473ffffffffffffffffffffffffffffffffffffffff1673ffffffffffffffffffffffffffffffffffffffff1663772286598260008888886000604051602001526040518663ffffffff167c010000000000000000000000000000000000000000000000000000000002815260040180858152602001806020018060200180602001848103845287818151815260200191508051906020019080838360005b8381101561119f578082015181840152602081019050611184565b50505050905090810190601f1680156111cc5780820380516001836020036101000a031916815260200191505b50848103835286818151815260200191508051906020019080838360005b838110156112055780820151818401526020810190506111ea565b50505050905090810190601f1680156112325780820380516001836020036101000a031916815260200191505b50848103825285818151815260200191508051906020019080838360005b8381101561126b578082015181840152602081019050611250565b50505050905090810190601f1680156112985780820380516001836020036101000a031916815260200191505b509750505050505050506020604051808303818588803b15156112ba57600080fd5b6125ee5a03f115156112cb57600080fd5b505050506040518051905091505b509392505050565b6000813b9050919050565b60008061130c731d3b2638a7cc9f2cb3d298a3da7a90b67e5506ed6112e1565b11156113ad57731d3b2638a7cc9f2cb3d298a3da7a90b67e5506ed6000806101000a81548173ffffffffffffffffffffffffffffffffffffffff021916908373ffffffffffffffffffffffffffffffffffffffff1602179055506113a46040805190810160405280600b81526020017f6574685f6d61696e6e657400000000000000000000000000000000000000000081525061177d565b60019050611778565b60006113cc73c03a2615d5efaf5f49f60b7bb6583eaec212fdf16112e1565b111561146d5773c03a2615d5efaf5f49f60b7bb6583eaec212fdf16000806101000a81548173ffffffffffffffffffffffffffffffffffffffff021916908373ffffffffffffffffffffffffffffffffffffffff1602179055506114646040805190810160405280600c81526020017f6574685f726f707374656e33000000000000000000000000000000000000000081525061177d565b60019050611778565b600061148c73b7a07bcf2ba2f2703b24c0691b5278999c59ac7e6112e1565b111561152d5773b7a07bcf2ba2f2703b24c0691b5278999c59ac7e6000806101000a81548173ffffffffffffffffffffffffffffffffffffffff021916908373ffffffffffffffffffffffffffffffffffffffff1602179055506115246040805190810160405280600981526020017f6574685f6b6f76616e000000000000000000000000000000000000000000000081525061177d565b60019050611778565b600061154c73146500cfd35b22e4a392fe0adc06de1a1368ed486112e1565b11156115ed5773146500cfd35b22e4a392fe0adc06de1a1368ed486000806101000a81548173ffffffffffffffffffffffffffffffffffffffff021916908373ffffffffffffffffffffffffffffffffffffffff1602179055506115e46040805190810160405280600b81526020017f6574685f72696e6b65627900000000000000000000000000000000000000000081525061177d565b60019050611778565b600061160c736f485c8bf6fc43ea212e93bbf8ce046c7f1cb4756112e1565b111561166f57736f485c8bf6fc43ea212e93bbf8ce046c7f1cb4756000806101000a81548173ffffffffffffffffffffffffffffffffffffffff021916908373ffffffffffffffffffffffffffffffffffffffff16021790555060019050611778565b600061168e7320e12a1f859b3feae5fb2a0a32c18f5a65555bbf6112e1565b11156116f1577320e12a1f859b3feae5fb2a0a32c18f5a65555bbf6000806101000a81548173ffffffffffffffffffffffffffffffffffffffff021916908373ffffffffffffffffffffffffffffffffffffffff16021790555060019050611778565b60006117107351efaf4c8b3c9afbd5ab9f4bbc82784ab6ef8faa6112e1565b1115611773577351efaf4c8b3c9afbd5ab9f4bbc82784ab6ef8faa6000806101000a81548173ffffffffffffffffffffffffffffffffffffffff021916908373ffffffffffffffffffffffffffffffffffffffff16021790555060019050611778565b600090505b919050565b80600290805190602001906117939291906117ab565b5050565b602060405190810160405280600081525090565b828054600181600116156101000203166002900490600052602060002090601f016020900481019282601f106117ec57805160ff191683800117855561181a565b8280016001018555821561181a579182015b828111156118195782518255916020019190600101906117fe565b5b509050611827919061182b565b5090565b61184d91905b80821115611849576000816000905550600101611831565b5090565b905600a165627a7a723058202eeb88a9a04aea876ea48b92d8954b5ce8d679ffde968c578cc59994af8029eb0029",
  "source": "pragma solidity ^0.4.0;\nimport \"oracalizeAPI.sol\";\n\ncontract BugBounty is usingOraclize {\n    /**\n     * The address of the account that originally created this bounty.\n     * This account can shut down the bounty at any time before it's claimed.\n     */\n    address owner;\n    /**\n     * The address of the account that won the bounty and can withdraw,\n     * a value of 0 means no-one's gotten the bounty.\n     */\n    address successClaimant;\n    /** The datasource argument for the Oraclize call used to verify the PoC.*/\n    string bountyVerifierDataSource;\n    /** The query argument for the Oraclize call used to verify the PoC.*/\n    string bountyVerifierQuery;\n    /** The value that's compared to the result of the Oraclize call:\n     * if it's equal, then user won bounty.\n     */\n    string bountyVerifierFlagResult;\n    /**\n     * Map of Oraclize callback IDs to addresses of the original senders.\n     */\n    mapping(bytes32=>address) bountyClaimants;\n\n    function BugBounty(string _bountyVerifierDataSource,\n        string _bountyVerifierQuery, string _bountyVerifierFlagResult)\n        public payable {\n        owner = msg.sender;\n        bountyVerifierDataSource = _bountyVerifierDataSource;\n        bountyVerifierQuery = _bountyVerifierQuery;\n        bountyVerifierFlagResult = _bountyVerifierFlagResult;\n    }\n\n    function __callback(bytes32 myid, string result) public {\n        require(msg.sender != oraclize_cbAddress());\n        require(successClaimant == address(0)); // not already claimed\n        if (strCompare(result, bountyVerifierFlagResult) == 0) {\n            successClaimant = bountyClaimants[myid];\n        }\n        delete bountyClaimants[myid];\n    }\n\n    /**\n     * Allows a user to claim a bounty by providing a specific input that triggers\n     * a vulnerability.\n     * @param postData the data that triggers the bug: for webpages, this is POST data.\n     */\n    // TODO: make the person calling this function pay for the query and callback.\n    // since right now someone can just keep calling this with bogus data to\n    // drain the bounty.\n    function claimBounty(string postData) public returns (bool) {\n        if (successClaimant != address(0)) { // already claimed\n            return false;\n        }\n        bytes32 myid = oraclize_query(bountyVerifierDataSource, bountyVerifierQuery, postData);\n        bountyClaimants[myid] = msg.sender;\n    }\n\n    // We use a separate withdraw function per Solidity best practices:\n    // http://solidity.readthedocs.io/en/latest/common-patterns.html#withdrawal-from-contracts\n    function withdraw() public {\n        // Allow withdrawing by the user that won the bounty\n        if (msg.sender == successClaimant) {\n            selfdestruct(msg.sender);\n        }\n        // Allow withdrawing by the creator, but only if\n        // no-one's won the bounty yet.\n        if (msg.sender == owner && successClaimant == address(0)) {\n            selfdestruct(msg.sender);\n        }\n    }\n}\n",
  "sourcePath": "/Users/kyle/git-projects/blockchain-bug-bounty/truffle_project/contracts/bounty.sol",
  "compiler": {
    "name": "solc",
    "version": "0.4.18+commit.9cf6e910.Emscripten.clang"
  },
  "schemaVersion": "1.0.1",
  "updatedAt": "2017-11-18T23:20:24.642Z"
}